:020000040800F2
:10000000900D001055020008954400081D4100089D
:100010009144000801090008BD51000800000000DB
:10002000000000000000000000000000D1470008B0
:10003000BD09000800000000D1440008394800084C
:100040006F0200086F0200086F0200086F020008CC
:100050006F0200086F0200086F0200086F020008BC
:10006000A90A00086F0200086F0200086F0200086A
:100070006F0200086F0200086F0200086F0200089C
:100080006F0200086F0200086F0200086F0200088C
:100090006F0200086F0200086F0200086F0200087C
:1000A0006F0200086F0200086F0200086F0200086C
:1000B0006F0200086F0200086F0200086F0200085C
:1000C0006F0200086F0200086F0200086F0200084C
:1000D0006F0200086F020008B15100086F020008AB
:1000E0006F0200086F0200086F0200086F0200082C
:1000F0006F0200086F0200086F0200086F0200081C
:100100006F0200086F0200086F0200086F0200080B
:100110006F0200086F0200087D4800086F020008A7
:100120006F0200086F0200086F0200086F020008EB
:100130006F0200086F0200086F0200086F020008DB
:100140006F0200086F0200086F0200086F020008CB
:100150006F0200086F0200086F0200086F020008BB
:100160006F0200086F0200086F0200086F020008AB
:100170006F0200086F0200086F0200080000000014
:100180006F0200086F02000800F002F800F052F859
:1001900014A696E8000CB244B344DA4501D100F04D
:1001A00049F8BAE80F000FA696E83000A5EB040561
:1001B00004EB0607AAEB0704A7F101074FEA1515A0
:1001C0004FEA3414A4F10104AC4201D300F032F838
:1001D00013F0010F18BFFB1A43F0010300F001F800
:1001E000DBE71847C07B0000F07B0000103A24BF1B
:1001F00078C878C1FAD8520724BF30C830C144BF8C
:1002000004680C6070470000704700000023002461
:1002100000250026103A28BF78C1FBD8520728BF16
:1002200030C148BF0B6070471FB507F03AFA1FBDD9
:1002300010B510BD00F076F91146FFF7F5FF04F098
:10024000BFFF00F094F903B4FFF7F2FF03BC00F026
:1002500097F900000948804709480047FEE7FEE794
:10026000FEE7FEE7FEE7FEE7FEE7FEE7FEE7FEE766
:1002700004480549054A064B7047000069480008D4
:100280008901000890070010900D001090090010DF
:100290009009001053EA020C00F069802DE9F04B40
:1002A0004FF00006002B1FBFB3FA83F503FA05F4E5
:1002B00024FA05F65E4012BF1643B2FA82F502FA3E
:1002C00005F4C5F120051EBF22FA05FC44EA0C0422
:1002D000203556EA044C4FEA144418BF641C4FF012
:1002E00000084FF00009904271EB030C39D300294C
:1002F00019BFB1FA81F701FA07F6B0FA80F700FAF0
:1003000007F6C7F120071EBF20FA07FC46EA0C06D5
:100310002037B6FBF4FCA7EB0507103F07F01F0BD7
:10032000CBF120062CFA06F60CFA0BFB44BFB346C1
:100330000026202FA4BF5E464FF0000B5BEA060CA0
:1003400008BF4FF0010B19EB0B0948EB0608ABFB9C
:10035000027C06FB02CC0BFB03CCC01B71EB0C0137
:10036000C1E70B46024641464846BDE8F08B13B54F
:10037000084318BF4FF0FF300146AFF30080BDE8DF
:100380001C407047032A40F2308010F0030C00F04C
:10039000158011F8013BBCF1020F624498BF11F8BF
:1003A00001CB00F8013B38BF11F8013BA2F1040278
:1003B00098BF00F801CB38BF00F8013B11F00303F0
:1003C00000F07980083AC0F0088051F8043B083A00
:1003D00051F804CBA0E80810F5E7121D5CBF51F8F6
:1003E000043B40F8043BAFF30080D20724BF11F870
:1003F000013B11F801CB48BF11F8012B24BF00F8D5
:10040000013B00F801CB48BF00F8012B704702F018
:10041000FF0343EA032242EA024200F024B84FF00D
:1004200000020429C0F0128010F0030C00F01B80C1
:10043000CCF1040CBCF1020F18BF00F8012BA8BFCF
:1004400020F8022BA1EB0C0100F00DB85FEAC17C93
:1004500024BF00F8012B00F8012B48BF00F8012B46
:1004600070474FF0000200B5134694469646203977
:1004700022BFA0E80C50A0E80C50B1F12001BFF45D
:10048000F7AF090728BFA0E80C5048BF0CC05DF8C3
:1004900004EB890028BF40F8042B08BF704748BF11
:1004A00020F8022B11F0804F18BF00F8012B704785
:1004B00070477047704710B5203AC0F00B80B1E824
:1004C0001850A0E81850B1E81850A0E81850203A89
:1004D000BFF4F5AF5FEA027C24BFB1E81850A0E892
:1004E000185044BF18C918C0BDE810405FEA827CAC
:1004F00024BF51F8043B40F8043B08BF7047D207C3
:1005000028BF31F8023B48BF11F8012B28BF20F863
:10051000023B48BF00F8012B7047000000487047BD
:10052000100000107546FFF7F9FFAE46050069465A
:10053000534620F00700854618B020B5FFF798FE17
:10054000BDE820404FF000064FF000074FF00008D4
:100550004FF0000BAC46ACE8C009ACE8C009ACE811
:10056000C009ACE8C00921F007018D46704710B5FD
:100570000446AFF300802046BDE81040FFF763BE9D
:1005800001491820ABBEFEE72600020070470000BC
:1005900070B5044600688268836802F0040203F0C4
:1005A0000803D21800F0BA80C26892016ED5627E4C
:1005B000012A6BD1227E012A68D10168490661D4E3
:1005C0000121CAF24031026852065BD40268520629
:1005D00058D4026852065CBF02685FEA426251D496
:1005E000026852065CBF02685FEA42624AD402684F
:1005F00052065CBF02685FEA426243D40268520658
:100600005CBF02685FEA42623CD4026852065CBF8B
:1006100002685FEA426235D4026852065CBF026833
:100620005FEA42622ED4026852065CBF02685FEA4B
:10063000426227D4026852065CBF02685FEA4262E7
:1006400020D4026852065CBF02685FEA426219D495
:10065000026852065CBF02685FEA426212D4026816
:1006600052065CBF02685FEA42620BD4026852061F
:100670005CBF02685FEA426204D41B3944D002685E
:100680005206A0D540210160012105E0022903D1D5
:100690000221082612E000BF826852070AD582684C
:1006A000920707D482684FF6C073C7F6FF731A40EB
:1006B0001032826001294FF0040610D082681207C0
:1006C0000AD58268920707D482684FF6C073C7F6CE
:1006D000FF731A4020328260032908BF0C2601F004
:1006E0005BF821688968314218D0054603E000BFF5
:1006F0008068304212D001F04FF8411B2068062973
:10070000F6D381683142F3D0606D40F0100060652F
:10071000A06D40F00100A065012070BD002070BDFB
:1007200070B582B004460020019021688A68D20723
:1007300011D14FF6C076C7F6FF76886806F17F02C2
:1007400010420BD0606D40F010006065A06D40F06D
:100750000100A065012002B070BD00BF8868304074
:1007600040F00100886040F20830C5F204000068E3
:10077000000221D401F010F821680A68D20717D1CD
:10078000054602E00868C00712D18868C00704D196
:100790008868304040F00100886000F0FDFF401B99
:1007A00021680328EED30868C007EBD1CAE700BF71
:1007B000002002B070BD00BF40F20800C1F200008E
:1007C000006842F663518009C0F23E51A0FB01016E
:1007D000880900EB40000C2101EB8000019001989A
:1007E0000028C7D001980138019001980028C1D095
:1007F00001980138019001980028BBD00198013878
:10080000019001980028B5D0019801380190019815
:100810000028E7D1AEE70000F0B583B0082005213D
:100820000022002401F06EFA082001F059FA052098
:1008300002210022022706F0EDF840F21016C1F264
:100840000006306001200821002206F0E3F8706005
:1008500040F6051008360325C0F600001BA14FF432
:1008600080720023CDE9005606F0D2FB44F6010069
:10087000C0F6000017A14FF480720023CDE9007488
:1008800006F0C6FB40F6C110C0F6000012A14FF4FE
:1008900080620023CDE9007406F0BAFB44F2211017
:1008A000C0F600000EA1802200230094019406F0FF
:1008B000AFFB40F29460C1F200000AA117224FF48E
:1008C0007A7303B0BDE8F04003F076BB4354524C5A
:1008D00000000000534E53004449535000000000F4
:1008E000484200004170706C69636174696F6E20EA
:1008F000496E697469616C697A65640A0000000078
:10090000FEE7000084B040F2101AB4274FF0000B4D
:10091000C1F2000A0DF10609002400254FF000087D
:100920001DE000BF04F0DCFF5A2818BF0746FEB2E6
:10093000304605F05BF8DAF804004946002202234D
:100940008DF807808DF808B08DF806508DF80C40B2
:10095000ADF80A6006F0A6F8642005F0B5FDDAF8F7
:1009600000000DF10E01642206F0F0F998B19DF837
:100970000E809DF80F1048EA0100C0B2002818BF91
:10098000012022065FFA81FB04D0002808BF04463C
:1009900001E000BF044600200121002205F0CAFB4F
:1009A000E9B20028B1FA81F118BF4D092806B9D182
:1009B000E0B2471E18BF6FF04B07B8E77047000062
:1009C00082B040F2101747F64F5547F62D5647F6BE
:1009D000605847F63E5947F67E5A47F6725BC1F2B9
:1009E00000076C46C0F60005C0F60006C0F6000819
:1009F000C0F60009C0F6000AC0F6000B07E000BF11
:100A000047F68851C0F60001042003F047FD7868DE
:100A100021464FF0FF3206F099F90028F7D040F256
:100A20009460C1F200001EA10522642303F0C4FA01
:100A3000002005F007F89DF8060047F61F51002832
:100A400047F61050C0F60001C0F6000008BF01468E
:100A5000012003F023FD9DF802009DF801200028ED
:100A60003046494604BF28464146002A08BF014691
:100A7000022003F013FD9DF80000594600284FF0B6
:100A8000030008BF514603F009FDBDF80400B42877
:100A9000B6D00028BBD147F69451C0F60001B3E7A9
:100AA000444953500A000000042000F065BD0000D6
:100AB000EFF3108072B600BFFEE7000090F8502000
:100AC000012A04BF02207047B0B582B0002340F273
:100AD000083401930093C5F204040368A4F542723C
:100AE00093422FD14FF6006ECFF6FF7E54F80E20C2
:100AF0009B681A43520725D4D1F800C02268BCF184
:100B0000000F22F460432BD04A6890F8305042EA3C
:100B100045321A4322604FF60052CFF6FF72A258B8
:100B200054F80E306FF0FF0565591A432A43D20777
:100B30002AD1226840F61F7389689A43114341EA1B
:100B40000C0120E0416D41F02001416501210022AE
:100B500080F8502002B0BDE8B0400846704700BFA2
:100B60004FF600512360CFF6FF71615854F80E2004
:100B70006FF0FF03E35811431943C90704D12168FB
:100B800040F61F72914321600021E0E7F0B581B08B
:100B90000022009290F85020012A03D10221084639
:100BA00001B0F0BD0123076880F85030BB685B07D7
:100BB00000F19A804B68052B06D8023B032B9ABFA5
:100BC000C9A555F823300623C3F3012407EB840499
:100BD0000D68226B03F01F031F269E40B243C5F32E
:100BE000846606FA03F31A432263BA68BB6802F00C
:100BF000040203F00803D21840F091800A688B6861
:100C0000C2F3406607EB86067569C2F304520724F7
:100C10009440A54303FA02F22A437261D1E90435F4
:100C2000FC68042B66D13A6E3A6E0B68C2F384629C
:100C300093FAA3F6C3F3846C6FF3DF43B6FA86F539
:100C4000002B2C464FF6FF7E08BF6446A242C0F23E
:100C5000070E0CD13A6E22F000423A660A6802EAA8
:100C60000E03C2F3846C92FAA2F2B2FA82F57A6EA3
:100C70007A6E002BC2F384622C4608BF6446A242FF
:100C80000CD17A6E22F000427A660A6802EA0E03FC
:100C9000C2F3846C92FAA2F2B2FA82F5BA6EBA6E1C
:100CA000002BC2F384622C4608BF6446A2420CD1DA
:100CB000BA6E22F00042BA660A6802EA0E03C2F374
:100CC000846C92FAA2F2B2FA82F5FA6EFA6E002BF6
:100CD000C2F3846208BF6546AA4220D1FA6E22F0B0
:100CE0000042FA661BE000BF416D41F02001416502
:100CF0000121F2E0062202EA94020E6807EB830368
:100D000005FA02F21D6E4FF20004C0F2FF3406F045
:100D1000F846254032432A4342F000421A66BA6838
:100D20000D68D20750D1CA68D7F8B0602B466FF370
:100D3000DF4326EA030C4FF6FF7602F01804C0F2F8
:100D40000706E64000242E40C4F27F0446EA0C0663
:100D5000A242C7F8B06037D193B195FAA5F2B2FAC2
:100D600082F2013202F01E03092B02F01F0310D899
:100D700001229A4003EB430342EA035315E000BF0C
:100D8000012202EB956202F01E030A2B02F01F0300
:100D9000EED3012200269A4003EB4303CFF62066F0
:100DA00006EB03531A4342F00073C3F3406607EBAC
:100DB00086068A687569C3F3045307249C40A543DB
:100DC0009A402A4372610D680021C8F208010D4261
:100DD00000F0828040F2083CC5F2040CDCF80040D0
:100DE0000021CCF252718D4204F0E07E08BF14F471
:100DF000000119D00021CCF684318D4254D100215C
:100E0000B1EB1E6F50D140F2002247F40071C5F2E1
:100E10000402914260D1DCF8001021F0E07141EA57
:100E20000E0141F0807155E040F2002247F400715C
:100E3000C5F2040291424FD1DCF8001042F6635231
:100E400021F0E07141EA0E0141F40001CCF80010FC
:100E500040F20801C1F200010968C0F23E5289095E
:100E6000A1FB0212910901EB41010C2202EB81016D
:100E70000091009981B3009901390091009959B30B
:100E8000009901390091009931B30099013900911D
:100E9000009909B3009901390091009900294FF098
:100EA0000001E8D119E000BFACF542718F424FF06C
:100EB000000112D10122C8F20002954208BF14F4C9
:100EC00080020AD1DCF8001021F0E07141EA0E0145
:100ED00041F48001CCF800100021002280F850205D
:100EE000084601B0F0BD00BF0C0000001200000079
:100EF00018000000000100000068006C704700004E
:100F000070B582B000210028019153D0416D39B9EC
:100F1000044600F0EBF820460021A16584F850104B
:100F20000268916889004FF6C071C5F6FF7102D55D
:100F300093680B4093609368DB002ED4936801F1B3
:100F40008051194041F08051916040F20801C1F296
:100F50000001096842F663538909C0F23E53A1FBC0
:100F600003139909022303EB410101910199A1B1F6
:100F7000019901390191019979B1019901390191E1
:100F8000019951B1019901390191019929B1019951
:100F90000139019101990029EAD19168C9000DD464
:100FA000416D012641F010014165816D41F0010163
:100FB000816504E00126304602B070BD00269368CA
:100FC000446D03F0040304F010041B19436D6FD14A
:100FD00023F48173023343659368DB0720D140F229
:100FE000083C4FF600544FF60063C5F2040CCFF6F0
:100FF000FF74CFF6FF735CF804E05CF803306FF029
:10100000FF045CF8044043EA0E032343DB0707D1E7
:101010004368DCF8004024F47C142343CCF800300F
:10102000437E446BD0E9021544EA43332B4390F8E6
:1010300020501943012D41EA054306D1416A00259C
:10104000CFF6FE7505EB41410B43846A24B1C16ABA
:1010500004F4707529430B43D1684CF20705CFF6B1
:10106000F07529401943D160916809072BD490F895
:101070003030017E5B0090F8385043EA8131D3680C
:1010800044F20204A3431943D1601369012D17D11F
:1010900040F2FD7123EA010CD0E90F35D0E911418E
:1010A00043EA0C032B432343194341F0010309E0B6
:1010B00043F0100201264265304602B070BD00BF09
:1010C00023F0010313610169136B012923F00F035E
:1010D00002D1C16901390B431363426D012161F3F0
:1010E00001024265304602B070BD000010B5A8B0E4
:1010F000044600202790CDE92500CDE9230001A872
:1011000020306821FFF7ADF920680021C5F2040105
:10111000884201D028B010BD4FF4804001904FF0BC
:1011200080501F900120CDE902001020049007207C
:1011300005900220CDE906004FF08070089001A8CC
:1011400000F06AFE002818BFFFF7B2FC41F24C0025
:10115000C4F20200016841F400510160016801F429
:10116000005100910099016841F00401016000689C
:1011700023A900F0040000900098032023900B2086
:1011800024900020259040F60000C4F6000000F0F6
:10119000FFF928B010BD00002DE9F04740F20839F2
:1011A0000446C5F20409D9F80000D4F814800D46AD
:1011B000B8F1080F00F01F0A02D1082712E000BFA3
:1011C000BAF1090F00F28C80012000FA0AF040F217
:1011D0002121084200F084802068C068C00740F0E8
:1011E0008580042700F0D8FA21680A683A4243D083
:1011F000606D40F400706065C86810F4406F0FD1F6
:10120000607E68B9086800070AD5606D20F48070B8
:101210006065606DC00403D4606D40F001006065DE
:10122000AAF10503BAFA8AF2B3FA83F352095B0909
:101230001A43AAF10903B3FA83F3A9F502705B0913
:101240008142084642EA030208BFA9F54270D2076C
:10125000024618BF0A46884208BF0246D068B8F165
:10126000080F01D1082002E0400401D40C200860DE
:101270000020BDE8F08700BF0646681C2CD065B989
:1012800000F08AFA2168086838420FD008683842AE
:10129000F6D0ADE708683842AAD100F07DFA801B8D
:1012A0002168A842F6D908683842F3D1606D40F051
:1012B00004006065002084F850000320BDE8F0873A
:1012C000086838427FF494AF086838427FF490AFE2
:1012D000086838427FF48CAF08683842F0D087E75E
:1012E000D9F8000010F4604F3FF47BAF606D40F020
:1012F000200060650120BDE8F087000070B5002483
:10130000C5F20404D4F8085301688968490703D476
:1013100090F85010012901D1022070BD012180F800
:1013200050100646FFF7FCF920B1002086F8500067
:10133000012070BD3168736D304640F60176B343CD
:1013400003F58073436504F58073994218BF0C461A
:10135000631A05F01F02B3FA83F318BF002A03D102
:10136000466D26F480164665466D5B09F6044FF01F
:10137000000644BF866D26F00606002586651C26FD
:101380000E6080F8505043B9092A19D8012303FA96
:1013900002F240F221231A4212D0CA68920104D507
:1013A000426D012363F30D32426588684FF6C072C7
:1013B000C7F6FF72104004308860002070BD00BF87
:1013C000416D41F480114165E16889015CBF0020F5
:1013D00070BD416D012262F30D314165002070BD89
:1013E000B0B5044690F85000012804BF0220B0BDFB
:1013F00001252046032184F85050FFF7C9F828B191
:10140000002084F850002846B0BD00BF20688168E5
:101410008268D20717D011F0020114D1816801F05F
:101420000D01012926D181684FF6C072C7F6FF72FF
:101430001140023181600321016000F0ADF92168A3
:101440008968C90708D1204650F8541F41F201129B
:101450009143002516E000BF054602E08068C00702
:10146000F1D000F099F9411B20680329F6D3816877
:10147000C907F3D0606D012540F01000606520467B
:1014800050F8581F41F001010160002084F850001D
:101490002846B0BD002804BF0120704790F82510F1
:1014A000022919D10168D0E910C30A6822F00102AB
:1014B0000A600A6822F00E020A6003F01C01012291
:1014C00002FA01F1CCF80410002180F82520002256
:1014D00080F82420084670470421C16301210022BE
:1014E00080F824200846704790F82510022921D161
:1014F00080B50268D0F838C0D0E910E1136801F077
:101500001C0123F0010313601368BCF1000F23F0EA
:101510000E0313604FF0010202FA01F1CEF804103D
:101520004FF0000180F8252080F8241018BFE04714
:10153000002080BD0421C1630120704780B582B0C6
:1015400000210428019114D140F21010C1F20000D2
:10155000806801AA05F014F8019850B14EF60450C5
:10156000CEF200004FF080510160BFF34F8FBFF308
:101570006F8F02B080BD000040F21441C4F201013F
:101580000A68024214BF08607047FFF7D7BF000027
:101590002DE9F04F83B00E68002E00F0E38000F1DB
:1015A000200241F60004009200F13847C4F600041E
:1015B00007224FEAB725A04208BF0622062D38BFF2
:1015C0004FEAB722002500274FF0000801920AE0F9
:1015D0000E6808F1010836FA08F207F1020705F172
:1015E000040500F0BF80012202FA08F416EA04099B
:1015F000EED0D1F804A00AF0030CACF10106022EE3
:1016000016D286680322CB68BA409643BB40334368
:10161000836043686FEA020E23EA0402CAF30013F0
:1016200003FA08F34FEA480B1A4342601AE000BF7E
:10163000BCF1030F10D1C66A4FF0030CA643CAF3E6
:10164000C00404FA08F42643C6620CFA07F66FEAEF
:10165000060EBB4628E000BF032202FA07F66FEA37
:10166000060EBB46C2688B6802EA0E0203FA0BF351
:101670001A43BCF1020FC26016D16FF00302009C46
:1016800002EA580205F01C060F2354F802C003FAC0
:1016900006FA0B692CEA0A0CB34043EA0C03A35088
:1016A000D1F804A00AF0030C02680CFA0BF302EA6A
:1016B0000E021A431AF4403F026089D041F26003DF
:1016C000C4F202031A6840F2004E42F001021A60AE
:1016D0001A68C4F2010E02F001020292029A28F086
:1016E00003024FF6084C7244CFF6FF7C52F80C30E0
:1016F00005F00C060F24B440A343019C04FA06F63F
:10170000334342F80C30DEF808204B6842EA090601
:1017100040F20C4CDC0258BF22EA0906CEF8086001
:10172000C4F2010CDCF800209C0242EA090658BF12
:1017300022EA0906CCF80060DEF804209C0342EAA5
:10174000090658BF22EA0906CEF80460DEF8002038
:10175000DB0342EA090658BF22EA0906CEF8006018
:1017600036E700BF03B000F000B830BCBDE8C08F62
:101770000069084018BF012070470000426902EA72
:101780000103914341EA0341816170471823002A14
:1017900008BF2823C150704740F28470C1F2000096
:1017A0000068704790F84120202A03D190F840202B
:1017B000012A01D102207047242280F841200268CA
:1017C000136823F001031360136823F4805313603C
:1017D000136819431160116841F001011160202163
:1017E00080F84110002180F8401000207047000070
:1017F00090F84120202A03D190F84020012A01D1FD
:1018000002207047242280F841200268136823F0E8
:1018100001031360136823F4706343EA012111602C
:10182000116841F001011160202180F84110002170
:1018300080F8401000207047002804BF0120704746
:1018400010B590F8411031B9002180F840100446DD
:1018500000F06AF92046242180F8411090E8121027
:10186000C3680A68012B22F001020A6024F070624A
:101870000A618A6822F400428A6003D14CF4004273
:101880008A6009E04CF40442022B8A6004D14A6861
:1018900042F4006203E000BF4A6822F400624A603A
:1018A0004A6800F1100C42F0007242F400424A60B3
:1018B000CA6822F40042CA609CE81C101A4342EA3B
:1018C0000422CA60026A42EA0C020A600A6842F014
:1018D00001020A6000212022416480F84120016356
:1018E00080F84210002010BD2DE9F04F83B004466F
:1018F00090F84100202807D10C9F4FB10D9E3EB1BA
:1019000094F8400001280BD1022003B000F008B980
:101910004FF400706064012003B000F001B900BF13
:1019200001209A4691468B4684F84000FFF734FF29
:10193000216805468A6912044FD421200E9A84F842
:10194000410040204FF000086FF39F2B49F6004301
:1019500084F84200C4F8448067626685C4F8348025
:10196000CDF808B0CFF600435FFA8AF016464A6811
:101970004BEA00409B46A3F580631A40104440F0B8
:10198000807040F400504860204631462A4602F0FC
:1019900033FDC0B92068BAF1010F09D04FEA19210F
:1019A0008162204631462A4602F026FD58B9206859
:1019B0005FFA89F18162204680210022334600953A
:1019C00002F06AFC50B384F84080012003B000F0BC
:1019D000A7B800BF88690004AFD5204619212A4660
:1019E00002F0ACFB002896D1FFF7D6FE401B216821
:1019F0001A28EFD388690004ECD5606C40F0200011
:101A00006064202084F84100002084F8420084F8BB
:101A10004000012003B000F083B800BF608D40F2A9
:101A20000009B0F5807FC0F2FF1907D320684B464C
:101A300050F8041F01EA0B02FF210AE0618D2068C3
:101A4000CBB250F8042F02EA0B0242EA03424FF0F5
:101A50000073029F1A433A4307F100774FF0FF08E3
:101A6000026021850DE000BF608D216820854A68F5
:101A7000C0B247EA004002EA0B0210434860608DA2
:101A800090B3204631462A4602F0B6FC00287FF487
:101A900042AF606A216810F8012B8A626062608D33
:101AA00001386085208D01382085618D0029E6D0C0
:101AB0000004E4D12046802100223346009502F044
:101AC000EBFB00287FF427AF608DB0F5807FCBD390
:101AD0002068A4F828804168029A01EA0B011143AA
:101AE00041EA09014160CAE7204631462A4602F030
:101AF00045FC00287FF40FAF20682021C1614268B7
:101B00004EF60003CFF600631A404260002084F8CE
:101B1000411084F8420084F8400003B000F000B89F
:101B200030BCBDE8C08F000010B5A8B0044600204E
:101B30002790CDE92500CDE9230001A804308421B8
:101B4000FEF78FFC206845F20041C4F20001884294
:101B500002D028B010BD00BF4020019001A800F0C5
:101B60005BF9002818BFFEF7A3FF41F24C04C4F252
:101B70000204206823A940F002002060206800F0E1
:101B8000020000900098C020239012202490002092
:101B90002590032026900420279040F20040C4F6B0
:101BA0000000FFF7F5FCE06840F40010E060E0683A
:101BB00000F400100090009828B010BD40F2000022
:101BC00040F28471C1F20000C1F2000100780A689D
:101BD000104408607047000080B5032000F0BEF894
:101BE0000F2000F009F800281CBF012080BD00F084
:101BF0005DF8002080BD0000B0B586B041F258010C
:101C0000C4F202010A68044642F010020A60096840
:101C100001A801F0100101910199694600F00CFC46
:101C2000049D002D18BF012500F028FC4DF68361AE
:101C3000A840C4F21B31A0FB01014FF0FF3000EBC4
:101C4000914140F2486041F20002C1F20000C4F24A
:101C5000000240F2E7330025C0E90021C0E9025349
:101C60000561856101F0D0F810B106B0B0BD00BFCC
:101C700040F24860C1F2000001F00EF90028F4D1F2
:101C8000362000F02DF80F2C0CD8362021460022EB
:101C900000F038F840F204010020C1F200010C60AD
:101CA00006B0B0BD012006B0B0BD000082B041F268
:101CB0005800C4F20200816841F00101816081682E
:101CC00001F0010101910199016841F08051016029
:101CD000006800F080500090009802B0704700004B
:101CE000002848BF704700F01F01012202FA01F1ED
:101CF0001C2202EAD0004EF20012CEF20002815005
:101D00007047000010B54EF60C5CCEF2000CDCF80B
:101D10000030C3F3022E8EF00704042C28BF0424E5
:101D2000BEF103034FF0FF3E0EFA04F438BF002368
:101D3000A14399400EFA03F39A43114300F00F02B6
:101D400000F160430901043A03F56443624400284A
:101D500048BF02F10C03197010BD00004EF60C5183
:101D6000CEF200010A684FF6FF031A4060F30A2220
:101D700042F0806040F0FD700860704747F200015B
:101D8000C4F200010A68B0F5007F02F4C06031D1EE
:101D9000B0F5007F2CD00868012262F34A20086069
:101DA00040F20800C1F200000068322250434DF6B4
:101DB0008362C4F21B32A0FB0202900C4A695205F6
:101DC00011D5421C0FD04A6952050CD558B14A6949
:101DD000520508D5012806D04A69520503D50228C4
:101DE000A0F10400EAD14869400544BF03207047D0
:101DF00000207047B0F5806FFAD00868022262F3C5
:101E00004A2008600020704747F20000C4F200003A
:101E1000006800F4C06070472DE9F04782B00446C6
:101E2000407841F288070007C4F2020725D5606EAA
:101E30004FEAB051032927D8DFE801F0020A141A4B
:101E4000201D002102F082FB0646B8B907E000BF62
:101E500004F12000002102F021FC064670B9606EFA
:101E600006E000BF57F87C1C41F4803147F87C1C29
:101E7000396821F440010843386000266078C006C4
:101E800006D4B2462AE000BF01266078C006F8D525
:101E9000A06E4FEA3060032800F29681B246DFE878
:101EA00010F005000B008501110000BF201D00216E
:101EB00002F04CFB05E000BF04F12000002102F01D
:101EC000EDFB8246BAF1000FD04608D13868A16E0A
:101ED00020F0407008434FF0000A3860B046A07808
:101EE000800705D4C2462168C80751D071E000BF01
:101EF00057F8300C5FEAC0090BD457F8300C40F0AB
:101F0000805047F8300C57F8300C00F080500190AA
:101F1000019847F20005C4F20005286840F480707B
:101F20002860FFF739FC06462868C00508D4FFF78B
:101F300033FC801B0228F7D94FF0030A22E000BFD0
:101F4000BAF1000F1ED1B86810F4407012D0D4F866
:101F5000841088420BD0B868B96820F4407041F40E
:101F60008031B960B96821F48031B960B860C007C8
:101F700040F03081B868D4F8841020F440700843F1
:101F8000C246B860B9F1000F1AD52168C80720D140
:101F9000880726D448072CD4080732D4C80638D47A
:101FA00088063ED4880544D448054AD4480650D40F
:101FB000080656D4C8055CD4880462D473E000BF18
:101FC00057F8300C20F0805047F8300C2168C807D3
:101FD000DED03868A26B20F0030010433860880719
:101FE000D8D53868E26B20F00C0010433860480701
:101FF000D2D53868226C20F03000104338600807D2
:10200000CCD53868626C20F0C00010433860C80638
:10201000C6D53868A26C20F440701043386088063A
:10202000C0D53868E26C20F4406010433860880501
:10203000BAD53868E26D20F4402010433860480576
:10204000B4D53868226E20F440101043386048063A
:10205000AED53868226D20F4405010433860080631
:10206000A8D53868626D20F4404010433860C80538
:10207000A2D53868A26D20F440301043386088043F
:1020800011D53A68E06E22F040620243B0F1806FF1
:102090003A601DD0B0F1006F05D157F87C0C40F4C8
:1020A000801047F87C0C080326D53A68206F22F090
:1020B00040620243B0F1806F3A6015D0B0F1006F1A
:1020C0001AD157F87C0C40F4801047F87C0C13E0D0
:1020D000201D012102F03AFA2168002818BF82462B
:1020E0000803E2D408E000BF201D012102F02EFA0F
:1020F0002168002818BF8246480311D53A68606FEE
:1021000022F040620243B0F1806F3A601CD0B0F11F
:10211000006F05D157F87C0C40F4801047F87C0C18
:10212000480425D53968A06F21F040510143B0F132
:10213000005F396014D0B0F1805F19D1201D0221F9
:1021400002F004FA11E000BF201D012102F0FEF9A7
:102150002168002818BF82464804E3D408E000BF85
:1021600004F12000022102F099FA002818BF8246EB
:102170002068010406D4C0030CD4504602B0BDE868
:10218000F08700BF3968E26F21F080411143396068
:10219000C003F2D53868D4F8801020F0004008431E
:1021A0003860504602B0BDE8F08700BF57F87C0C9D
:1021B000B24640F4803047F87C0CBAF1000FD046AC
:1021C0007FF48DAE82E600BF4FF0010A4FF00108A8
:1021D00085E600BFFFF7E0FA064641F288354FF08A
:1021E000030A00BFB86880073FF5C4AEFFF7D4FA12
:1021F000801BA842F6D9C5E62DE9F04381B000283E
:1022000000F08C8042F20009C4F202090446D9F8B9
:10221000000000F0070081420CD9D9F8000020F03E
:1022200007000843C9F80000D9F8000000F00700D3
:10223000884273D1206841F2080610F00202C4F20D
:1022400002060AD0A368376807F0F007BB4204D93A
:10225000376827F0F0073B433360C30734D060682A
:1022600056F8082C50B1022804D003280AD1920154
:102270000AD453E0920307D450E000BF920703D47E
:102280004CE000BF520549D58846316821F0030172
:1022900008433060FFF780FA054641F2883700BFF7
:1022A0003068616800F00C00B0EB810F08D0FFF7D8
:1022B00073FA401BB842F3D9032001B0BDE8F083A4
:1022C0002068414600F0020252B1A268336803F070
:1022D000F0039A4204D2336823F0F0031A433260C9
:1022E000D9F8002002F0070291420CD2D9F8002060
:1022F00022F007020A43C9F80020D9F8002002F0B2
:1023000007028A420AD141070CD4000712D4306870
:10231000716810F00C0019D11EE000BF012001B05F
:10232000BDE8F0833168E26821F4E0611143316077
:102330000007ECD53068216920F4605040EAC10004
:1023400030603068716810F00C0005D00C282BD17B
:1023500001F00301012927D156F8081C042211F0CD
:1023600008016FF0070108BF8C21715808BF0822CF
:10237000D14047F6D04201F00F01C0F6000252F8FA
:10238000211000280A4618BF00220C2838D1706896
:1023900000F00300022811D0032804BF41F20021FD
:1023A000C0F27A010EE000BF04281FD0082823D114
:1023B00041F20022C0F27A0222E000BF42F2004164
:1023C000C0F2F40170687268C0F30210C2F3062212
:1023D000514372680130B1FBF0F0C2F34161022257
:1023E00002EB4101B0FBF1F20AE000BF42F2004211
:1023F000C0F2F40204E000BF002200210C28C6D085
:10240000306847F2BC61C0F30310C0F60001085CFD
:1024100000F01F0022FA00F140F20400C1F20000B7
:1024200040F208020068C1F20002116001B0BDE88C
:10243000F043FFF7E1BB00000F22026041F2080207
:10244000C4F20202136803F003034360136803F04D
:10245000F0038360136803F4E063C36012684FF411
:10246000E06303EAD202026142F20000C4F2020019
:10247000006800F0070008607047000040F20800A4
:1024800041F20801C1F20000C4F2020100680968CB
:1024900047F2CC62C1F30221C0F60002515C01F0A8
:1024A0001F01C8407047000040F2080041F20801D7
:1024B000C1F20000C4F202010068096847F2CC6270
:1024C000C1F3C221C0F60002515C01F01F01C840F7
:1024D0007047000041F20C01C4F2020151F8040CF3
:1024E00010F00C02086805D00C2A2BD100F0030074
:1024F000012827D151F80C0C042310F008006FF0CC
:102500000B0008BF8820085808BF0823D84047F6AA
:10251000D04300F00F00C0F6000353F82030002A2B
:10252000184618BF00200C2A18BF7047086800F032
:102530000300022810D0032804BF41F20023C0F298
:102540007A030DE0042A1FD0082A23D141F200208B
:10255000C0F27A00704700BF42F20043C0F2F403B9
:1025600008680A68C0F30210C2F306220968013045
:102570005A43B2FBF0F0C1F34161022202EB410188
:10258000B0FBF1F0704700BF42F20040C0F2F4002F
:10259000704700BF00200023C5E70000002804BFEB
:1025A000012070472DE9F04383B041F20006044654
:1025B000C4F20206B068F168227800F00C09D00677
:1025C00001F003081ED42078C00700F08880B9F11C
:1025D000080F00F07D80B9F10C0F08BFB8F1030FB0
:1025E00076D061683068B1F5803F07D0B1F5A02F93
:1025F00040F0208240F480203060306840F4803029
:10260000306021E2B9F1000F1CD0B9F10C0F08BF06
:10261000B8F1010F16D0A1693068002900F0B88127
:1026200040F001003060FFF7B7F8054630688007DA
:1026300000F1C081FFF7B0F8401B02284FF0030003
:10264000F4D92EE33068800703D5A069002800F094
:10265000DD82256A3068000700F12A81D6F89400EF
:10266000000900F0F000854200F228813068B9F1DD
:10267000000F40F008003060306820F0F00040EAC1
:10268000050030607068E16920F47F4040EA012075
:10269000706040F08682B06DC00000F12382B06DA2
:1026A00040F08050B065B06D00F08050029002980C
:1026B000FFF7AAFBB16D21F08051B165B0F5007F45
:1026C00000F01682802D40F2538203205BE200BFAF
:1026D0003068800303D56068002800F09782207876
:1026E00080072DD5B9F1040F1CD0B9F10C0F08BF2C
:1026F000B8F1020F16D0E1683068002900F0B4810B
:1027000040F480703060FFF747F8054630684005B8
:102710000FD4FFF741F8401B02284FF00300F5D912
:10272000BFE200BF3068400503D5E068002800F034
:102730006D827068216920F0F85040EA0160706095
:10274000207800075ED42078400775D4A06A00285E
:1027500000F0EC82022840F0E380F068E16A00F0CB
:1027600003028A4240F0F480226B6FF00F0300F006
:10277000700103EB0212914240F0EA80616B00F4B9
:10278000FE42B2EB012F40F0E380A16B00F4003277
:10279000073918BF01218A4240F0DA80E26B00233A
:1027A000CFF6E07303EA025200F4C001A2F5001272
:1027B000914240F0CD80216C4FF07E4202EA0161EF
:1027C00000F0C06001F17E41884240F0C180306875
:1027D000800100F1AB82306840F080703060F068BA
:1027E00040F08070F060FEF7D7FF0446306880014B
:1027F00000F19C82FEF7D0FF001B02284FF003007F
:10280000F4D94EE26169D6F89400002972D040F004
:102810000100C6F89400FEF7BFFF0546D6F8940005
:10282000800790D4FEF7B8FF401B0228F6D903209A
:1028300003B0BDE8F08300BFB06D5FEAC00808D404
:10284000B06D40F08050B065B06D00F080500090E9
:10285000009847F20007C4F200073868C00513D497
:10286000386840F480703860FEF796FF054600BF78
:102870003868C00508D4FEF78FFF401B02284FF0D0
:102880000300F5D90DE200BFA168D6F89000012938
:1028900008D0052940F0AE8040F00400C6F8900052
:1028A000D6F8900040F00100C6F89000AFE000BFFD
:1028B000306800F0F00085427FF6D8AEB06DC00001
:1028C00000F18A80B06D40F08050B065B06D00F0CE
:1028D000805001900198FFF797FAB16D21F0805177
:1028E000B165B0F5007F00F07D80802D40F2CE8094
:1028F0000320D6E020F00100C6F89400FEF74CFF5C
:10290000054600BFD6F8940080077FF51CAFFEF7A0
:1029100043FF401B02284FF00300F3D9C1E100BF81
:10292000B9F10C0F00F07281306820F080703060D7
:10293000FEF732FF044600BF3068800140F1E080BE
:10294000FEF72AFF001B02284FF00300F4D9A8E18C
:10295000B9F10C0F00F05A813068400100F1568146
:102960003068C00000F15281306820F08070306023
:10297000FEF712FF05463068800140F19581FEF7B1
:102980000BFF401B02284FF00300F4D989E100BF80
:1029900020F001003060FEF7FFFE0546306880073A
:1029A0007FF511AEFEF7F8FE401B02284FF0030042
:1029B000F4D976E1306840F0080030603068D4E93E
:1029C000071220F0F00010433060706820F47F4060
:1029D00040EA01207060F6E5FFF716FAB0F5007FD7
:1029E0007FF483AF812D5BD30120A02D88BF02200F
:1029F00057E000BF20F00100C6F89000D6F8900024
:102A0000002920F00400C6F8900000F08580FEF751
:102A1000C3FE054641F28837D6F89000800700F1E2
:102A20008D80FEF7B9FE401BB842F5D9032003B0F4
:102A3000BDE8F08320F4803030603068002920F455
:102A40008020306000F08480FEF7A6FE054600BFBF
:102A5000306880033FF543AEFEF79EFE401B6428BE
:102A60004FF00300F4D91CE120F480703060FEF7D1
:102A700093FE0546306840057FF562AEFEF78CFE9A
:102A8000401B02284FF00300F4D90AE1A5F17000C1
:102A9000B0FA80F04009802D08BF022001E000BF9D
:102AA000002042F20001C4F202010A6822F007028B
:102AB00002440A60096801F00701814240F0A680E3
:102AC000306840F0080030603068D4E9071220F028
:102AD000F00010433060706820F47F4040EA01202D
:102AE00070605EE0FFF790F9B0F5007F7FF4EAAD2B
:102AF000812D47D30120A02D88BF022043E000BFD5
:102B0000F0684FF6FC71CFF6EE610840F0600020EF
:102B100003B0BDE8F08300BFFEF73EFE054641F27C
:102B2000883700BFD6F89000800707D5FEF734FE3F
:102B3000401BB8424FF00300F4D9B2E0B8F1000FE7
:102B40003FF504AEB06D20F08050B065FEE500BFEB
:102B5000FEF722FE054600BF306880037FF5BFAD5B
:102B6000FEF71AFE401B64284FF00300F4D998E0EA
:102B7000A5F17000B0FA80F04009802D08BF022056
:102B800001E000BF002042F20001C4F202010A6825
:102B900022F0070202440A60096801F0070181423D
:102BA00034D1B068F16810F00C0005D00C2831D198
:102BB00001F0030101292DD1314651F8942B12F077
:102BC0000802324608BF0A464FF00401126808BFE7
:102BD000082122FA01F147F6D04201F00F01C0F6B8
:102BE000000252F8211000280A4618BF00220C28C3
:102BF0003CD1F06800F00300022815D0032804BF80
:102C000041F20021C0F27A0112E000BF012003B0BE
:102C1000BDE8F08304281FD0082823D141F2002208
:102C2000C0F27A0222E000BF42F20041C0F2F40199
:102C3000F068F268C0F30210C2F306225143F26852
:102C40000130B1FBF0F0C2F34161022202EB41011D
:102C5000B0FBF1F20AE000BF42F20042C0F2F4021F
:102C600004E000BF002200210C28C2D0B06847F267
:102C7000BC61C0F30310C0F60001085C00F01F0047
:102C800022FA00F140F20400C1F2000040F2080212
:102C90000068C1F200021160FEF7AEFF00283FF4A9
:102CA00092AC03B0BDE8F083F06848F28C01CFF637
:102CB0009D1104F12C0700EA010C8ECFD4E90F54CA
:102CC0006FF00F0040F2000E00EB0210CFF6E07E36
:102CD00041EA0C010EEA05554FF07E420843A5F586
:102CE000001502EA046240EA032002F17E420EF57A
:102CF000F014284304EA473710433843F060306843
:102D000040F080703060F06840F08070F060FEF756
:102D100043FD04463068800108D4FEF73DFD001BEA
:102D200002284FF00300F5D9BBE700BF002003B035
:102D3000BDE8F08370470000704700007047000056
:102D400090F83C20012A4FF002025AD010B580F8CA
:102D50003D20026843F2004C5368D2F808E0C4F208
:102D6000010C624505D042F60044C4F20104A242BF
:102D700003D14C6823F4700323430C6823F07003E1
:102D8000234340F6FF34C4F20004A242536013DD33
:102D900043F2FF33C4F201039A421DDC40F60043C4
:102DA000C4F200039A421FD042F60043C4F201036A
:102DB0009A4219D01DE000BFB2F1804F14D040F20A
:102DC0000043C4F200039A420ED040F60003C4F25E
:102DD00000039A4208D00CE044F20003C4F201035D
:102DE0009A4201D0624504D189682EF080031943CC
:102DF00091600121002280F83D1080F83C20BDE860
:102E00001040104670470000002804BF01207047A2
:102E100010B5044690F83D0028B9002084F83C0025
:102E2000204600F023F8022084F83D002068211D90
:102E300001F02AFD012084F8480084F83E0084F85F
:102E40003F0084F8400084F8410084F8420084F890
:102E5000430084F8440084F8450084F8460084F870
:102E6000470084F83D00002010BD00000068B0F16C
:102E7000804F18BF704781B041F25800C4F2020081
:102E8000016841F001010160006800F0010000905C
:102E9000009801B07047000090F83D10012921D141
:102EA000022180F83D10016840F6FF32C868C4F284
:102EB0000002914240F00100C86015DD43F2FF308E
:102EC000C4F2010081421FDC40F60040C4F2000061
:102ED000814225D042F60040C4F2010081421FD059
:102EE0002BE000BF01207047B1F1804F18D040F2B5
:102EF0000040C4F20000814212D040F60000C4F24B
:102F0000000081420CD018E044F20000C4F201003D
:102F1000814205D043F20040C4F2010081420CD14D
:102F200088680722C0F201020240062A4FF0000022
:102F3000D9D0B2F5803F08BF7047086840F0010063
:102F4000086000207047000090F83C20012A4FF0F4
:102F5000020271D010B580F83D2004688822A36871
:102F6000CFF6FE721A40A2600B684F2B34DC1F2B89
:102F70004EDD202B50D0302B4ED0402B40F0C8805F
:102F8000D1F804C0D1F80CE0236A216A21F00102D3
:102F9000A4F18041A1F596314FEAB12107292262BF
:102FA00009D8012202FA01F111F0E50F1EBF216AD2
:102FB00021F004012162A16923F00A0221F0F0014D
:102FC00041EA0E1142EA0C02A1612262A16841F0BD
:102FD000470121F0300125E06F2B2FDDB3F5005FB5
:102FE00000F08680B3F5805F1DD0702B40F090809C
:102FF000D1E901C3C968A26843EA0C0322F47F4205
:1030000043EA01211143A160A16841F0770109E081
:1030100013B1102B40F07C80A16821F0700119439E
:1030200041F00701A1600022012180F83D1000213C
:1030300080F83C10BDE8104010467047502B2BD054
:10304000602B65D1D1F804C0D1F80CE0236A226A64
:1030500043F20041C4F201018C4222F010012162CE
:1030600005D042F60041C4F201018C4203D1216A2D
:1030700021F040012162A16923F0A00221F47041F6
:1030800041EA0E3142EA0C12A1612262A16841F0CC
:10309000670121F01001C5E7D1F804C0D1F80CE0B8
:1030A000236A216A21F00102A4F18041A1F5963141
:1030B0004FEAB1210729226209D8012202FA01F15F
:1030C00011F0E50F1EBF216A21F004012162A16900
:1030D00023F00A0221F0F00141EA0E1142EA0C024B
:1030E000A1612262A16841F0570121F0200199E716
:1030F000D1E901C3C968A26843EA0C0322F47F4204
:1031000043EA01211143A160A16841F4804189E7AC
:10311000012289E770470000F0B581B004460068DD
:10312000C5680669B10717D515F0020114D06FF014
:1031300002010161012121778069800704D02046C6
:10314000FFF7E8FF06E000BF204600F0C5F8204684
:1031500000F0CAFA00202077700719D515F0040096
:1031600016D020686FF00401016102212177806987
:1031700010F4407F04D02046FFF7CCFF06E000BFEC
:10318000204600F0A9F8204600F0AEFA0020207793
:10319000300717D515F0080014D020686FF008012B
:1031A000016104212177C069800703D02046FFF721
:1031B000B1FF05E0204600F08FF8204600F094FAB9
:1031C00000202077F00619D515F0100016D02068E1
:1031D0006FF01001016108212177C06910F4407F70
:1031E00004D02046FFF796FF06E000BF204600F01F
:1031F00073F8204600F078FA00202077F00718BF17
:1032000015F0010006D020686FF001010161204631
:1032100000F042FB16F4025F05F0800718BF002F94
:1032200002D1F00509D410E020686FF40251016169
:103230002046FFF781FDF00507D537B120686FF410
:10324000807101612046FFF775FD700609D515F004
:10325000400006D020686FF040010161204600F078
:1032600025FBB0060CD515F0200009D021686FF0C1
:10327000200220460A6101B0BDE8F040FFF75EBDC4
:1032800001B0F0BD80B586B000680021B0F1804F7C
:103290000591CDE903110291019101D006B080BDE5
:1032A00041F24C00C4F20200026842F001020260E6
:1032B0000068022200F001000090009801200190B7
:1032C000CDE90221CDE9041001A94FF09040FEF7AD
:1032D0005FF906B080BD00007047000090F83C30F8
:1032E000012B04BF022070474FEAB202052A00F208
:1032F000C1812DE9F041DFE812F0070021019100C2
:10330000E5005500750100BF03681D6A1A6AA3F144
:10331000804622F001021A621A46D3F804C052F81D
:1033200018EF8F68A6F59636D1F8008025F00205D3
:103330004FEAB626072E45EA07050CD80127B74005
:1033400017F0E50F07D01F6A25F0080527F00407DE
:103350001F62CF683D43072E0CD8012707FA06F6F7
:1033600016F0E50F1FBFD1E905672CF44074264322
:1033700046EA070C4FF68C74CFF6FE740EEA04078B
:1033800047EA0807C3F804C09F614F6809695F6393
:103390001D629F6947F008079F619F6927F0040736
:1033A0009F615CE10368D3F820C01A6AA3F18047EB
:1033B00022F480321A621A46A7F596375D6852F8F1
:1033C000548FD1F800E08E684FEAB727072F09D84D
:1033D0000124BC4014F0E50F1EBF4C6925F4803574
:1033E00045EA04252CF4003747EA06474FF68C7669
:1033F000CFF6FE76033606EA080646EA0E065D605C
:103400005E654E6809699E651F625F6D47F008073B
:103410005F655F6D27F004075F6520E1036843F295
:1034200000461D6A1A6AC4F2010622F480721A620A
:103430001A46D3F804C052F81C8FB3428E68D1F8F4
:1034400000E025F4007545EA062505D042F6004661
:10345000C4F20106B34208D11E6A25F4006526F4C1
:1034600080661E62CE6845EA0625A3F18046A6F571
:1034700096364FEAB626072E0CD8012707FA06F62D
:1034800016F0E50F1FBFD1E905672CF44054374310
:1034900044EA071C4FF68C74CFF6FE7404EA080465
:1034A00044EA0E07C3F804C0DF614F680969DF63AF
:1034B0001D62DF6947F00807DF61DF6927F0040755
:1034C000DF61CCE00368D3F820C01A6AA3F180471B
:1034D00022F480521A621A46A7F596375C6852F8B1
:1034E0001C8FD1F800E08E684FEAB727072F09D864
:1034F0000125BD4015F0E50F1EBF4D6924F4804441
:1035000044EA85142CF4005747EA063748F6FF468C
:10351000CFF6FF6606EA080646EA0E265C60DE6124
:103520004E6809691E641F62DF6947F40067DF6146
:10353000DF6927F48067DF6190E000BF036843F232
:1035400000461D6A1A6AC4F2010622F010021A62CD
:103550001A46D3F804C052F8188FB3428E68D1F8D7
:1035600000E025F0200545EA061505D042F60046A4
:10357000C4F20106B34208D11E6A25F0800526F088
:1035800040061E62CE6845EA0615A3F18046A6F500
:1035900096364FEAB626072E0CD8012707FA06F60C
:1035A00016F0E50F1FBFD1E905672CF440643743DF
:1035B00044EA870C48F6FF44CFF6FF6404EA0804A7
:1035C00044EA0E27C3F804C09F614F6809699F63EE
:1035D0001D629F6947F400679F619F6927F48067B8
:1035E0009F613BE00368D3F820C01A6AA3F18047CB
:1035F00022F480121A621A46A7F596375D6852F8CF
:10360000548FD1F800E08E684FEAB727072F09D80A
:103610000124BC4014F0E50F1EBF4C6925F4802541
:1036200045EA84252CF4001747EA065748F6FF467A
:10363000CFF6FF6606F5407606EA080646EA0E264D
:103640005D605E654E680969DE651F625F6D47F407
:1036500000675F655F6D27F480675F650902136827
:10366000194311600021BDE8F041002280F83C20A0
:10367000084670470121002280F83C200846704728
:10368000002804BF0120704710B5044690F83D00A3
:1036900028B9002084F83C00204600F023F80220DE
:1036A00084F83D002068211D01F0EEF8012084F827
:1036B000480084F83E0084F83F0084F8400084F815
:1036C000410084F8420084F8430084F8440084F800
:1036D000450084F8460084F8470084F83D00002047
:1036E00010BD0000704700007047000080B5D9B1E0
:1036F0000B1F4FEAB30E43224FF03F0CBEF1040FF5
:1037000038BF0CEBB302825C012A1CBF012080BDD4
:10371000BEF1030F1ED8DFE80EF00319111500BF2C
:10372000022280F83F2018E090F83E20012A1CBFBA
:10373000012080BD022280F83E200EE0022280F8A7
:1037400041200AE0022280F8422006E0022280F8AE
:10375000402002E0022280F84320026801F01F01AD
:103760000120136A00FA01F18B431362136A0B43C1
:10377000A2F18041A1F596314FEAB12106291362E9
:103780004AD8884010F0650F46D0506C40F6FF31A3
:10379000C4F2000140F400408A4250640EDD43F25E
:1037A000FF30C4F20100824216DC40F60040C4F251
:1037B000000082421CD042F6004015E0B2F1804F7A
:1037C00016D040F20040C4F20000824210D040F611
:1037D0000000C4F2000009E044F20000C4F201005D
:1037E000824205D043F20040C4F2010082420CD173
:1037F00090680721C0F20101014006294FF0000046
:1038000008D0B1F5803F08BF80BD106840F00100CE
:103810001060002080BD00BF42F6FF30C4F20100FE
:1038200082420DDC40F2FF70C4F20000824215DCDF
:10383000B2F1804FDCD040F20040C4F20000D5E786
:1038400043F6FF70C4F20100824213DC42F60040EE
:10385000C4F201008242C5D1CAE700BF40F60000B1
:10386000C4F200008242C3D040F60040C4F200001F
:10387000BCE700BF44F20000C4F201008242B7D0AE
:1038800044F60000C4F20100824202BF506C40F4D2
:1038900000405064B9E70000006841F20001C4F242
:1038A0000001884218BF7047FEF788B970470000D2
:1038B00070470000704700007047000070B5016855
:1038C00040F62F03CA690E688C681340202B06F05F
:1038D000200E07D1BEF1000F04D0816E41B3BDE8C8
:1038E0007040084740F60F031A4209D040F22013F7
:1038F000C0F2004304F0010C334013EB0C0325D15C
:10390000036ED50616D5012B14D116F0100311D075
:1039100010220A628968490630D4B0F85810B0F80D
:103920005A20B0F85A30002B18BF914240F0448220
:1039300070BD00BFD30213D514F4800310D04FF430
:1039400080120A62BDE87040FFF7B4BFD30718BF0A
:1039500016F4807340F0D280930700F1D980E2E042
:10396000110640F1E18116F0800100F0DD81C16EA9
:103970000029DDD0BDE87040084700BF416F0A68EC
:103980005368B0F8584099B2002900F00382A14270
:1039900080F00082A0F85A301168890600F1A180F9
:1039A000016851E8001F026821F4807142E80013A9
:1039B000DBB1016851E8001F026821F4807142E820
:1039C000001393B1016851E8001F026821F480716F
:1039D00042E800134BB1016851E8001F026821F46E
:1039E000807142E80013002BDAD1016851E8021F10
:1039F000026821F0010142E80213C3B3016851E8F3
:103A0000021F026821F0010142E802137BB3016842
:103A100051E8021F026821F0010142E8021333B3AA
:103A2000016851E8021F026821F0010142E8021317
:103A3000002BDAD11BE000BF016851E8021F0268C9
:103A400021F0400142E80213DBB1016851E8021F96
:103A5000026821F0400142E8021393B1016851E885
:103A6000021F026821F0400142E802134BB10168D5
:103A700051E8021F026821F0400142E80213002BC6
:103A8000DAD12021C0F8801000210166016851E8D8
:103A9000001F026821F0100142E80013DBB1016849
:103AA00051E8001F026821F0100142E8001393B1B1
:103AB000016851E8001F026821F0100142E800137C
:103AC0004BB1016851E8001F026821F0100142E883
:103AD0000013002BDAD1416F04460846FDF7DAFCEB
:103AE000204602214166B0F85810B0F85A20891AD1
:103AF00089B2BDE87040FFF7DBBE00BF01230B6257
:103B0000D0F8843043F00103C0F8843093070AD51D
:103B1000BCF1000F07D002230B62D0F8843043F0D1
:103B20000403C0F8843053070AD5BCF1000F07D056
:103B300004230B62D0F8843043F00203C0F88430D1
:103B400013070AD55CEA0E0307D008230B62D0F8EE
:103B5000843043F00803C0F8843013050BD516F009
:103B6000806308D04FF400630B62D0F8843043F0D8
:103B70002003C0F88430D0F88430002B3FF4D8AE56
:103B8000920608D5BEF1000F05D0826E1AB1044628
:103B9000904721682046D0F88420896802F02802E6
:103BA00001F04001891807D10446FFF785FE002087
:103BB000C4F8840070BD00BF016851E8001F0268AE
:103BC00021F4907142E80013BBB3016851E8001F73
:103BD000026821F4907142E8001373B3016851E860
:103BE000001F026821F4907142E800132BB30168B2
:103BF00051E8001F026821F4907142E80013002B85
:103C0000DAD11AE0016851E8021F026821F00101CF
:103C100042E80213DBB1016851E8021F026821F09B
:103C2000010142E8021393B1016851E8021F0268E2
:103C300021F0010142E802134BB1016851E8021F73
:103C4000026821F0010142E80213002BDAD1016E73
:103C5000012924D1016851E8001F026821F01001F8
:103C600042E80013DBB1016851E8001F026821F04F
:103C7000100142E8001393B1016851E8001F026887
:103C800021F0100142E800134BB1016851E8001F18
:103C9000026821F0100142E80013002BDAD1202144
:103CA000C0F88010002101660268816691684906AB
:103CB00040F17E80016851E8021F026821F0400156
:103CC00042E80213DBB1016851E8021F026821F0EB
:103CD000400142E8021393B1016851E8021F0268F3
:103CE00021F0400142E802134BB1016851E8021F84
:103CF000026821F0400142E80213002BDAD1416F43
:103D0000002955D044F61542C0F600020446084684
:103D10008A63FDF7E9FB00283FF40AAE606F816B10
:103D2000BDE87040084700BF51067FF501AE16F0B0
:103D3000400108BF70BD00BF016851E8001F026864
:103D400021F0400142E80013DBB1016851E8001F97
:103D5000026821F0400142E8001393B1016851E884
:103D6000001F026821F0400142E800134BB10168D6
:103D700051E8001F026821F0400142E80013002BC7
:103D8000DAD12021C1670021C166BDE8704000F092
:103D9000C3B900BF8C427FF4CBAD126892067FF5A9
:103DA000C7AD02224266BDE87040FFF781BD00BF8B
:103DB000BDE87040FFF780BD891A00BF026852E875
:103DC000002F036822F4907243E80026BEB3026815
:103DD00052E8002F036822F4907243E8002676B37D
:103DE000026852E8002F036822F4907243E800262C
:103DF0002EB3026852E8002F036822F4907243E861
:103E00000026002EDAD11AE0026852E8022F036879
:103E100022F0010243E80226DEB1026852E8022FD6
:103E2000036822F0010243E8022696B1026852E8D4
:103E3000022F036822F0010243E802264EB1026815
:103E400052E8022F036822F0010243E80226002E06
:103E5000DAD12022C0F8802000220266826600BFEC
:103E6000026852E8002F036822F0100243E800269F
:103E7000DEB1026852E8002F036822F0100243E826
:103E8000002696B1026852E8002F036822F0100263
:103E900043E800264EB1026852E8002F036822F082
:103EA000100243E80026002EDAD1022289B24266CF
:103EB000BDE87040FFF7FCBC10B5C0B10446C06F50
:103EC00028B9002084F87800204600F025F8242046
:103ED000E0672068616A026822F00102026011B1A5
:103EE000204600F06FFD204600F098FE10B1012042
:103EF00010BD00BF2168486820F490404860886881
:103F000020F02A008860086840F0010220460A601C
:103F1000BDE8104000F0CABD10B5A8B004460020AE
:103F20002790CDE92500CDE9230001A804308421A4
:103F3000FCF797FA206844F20041C4F2000188427D
:103F400002D028B010BD00BF022401A80194FDF7E3
:103F500063FF002818BFFCF7ABFD41F24C00C4F230
:103F60000200C16841F40031C160C16801F4003150
:103F700000910099016841F001010160006823A9E6
:103F800000F00100009000980C20CDE923040020EF
:103F9000259003202690072027904FF09040FDF7B2
:103FA000F7FA262000210022FDF7ACFE2620FDF7BF
:103FB00097FE28B010BD00002DE9F04381B0044603
:103FC000C06F20280AD1884600294FF0010018BF91
:103FD000002A07D101B0BDE8F08300BF022001B084
:103FE000BDE8F0830020C4F8840021201D46E0676E
:103FF0001646FDF7D1FBA4F85060A4F85260A16802
:104000000646B1F5805F02D12069002844D04746BA
:104010004FF00008B4F852002168002842D005F1A2
:10402000010900BFC86900060ED4B9F1000F0FD016
:10403000002D5FD0FDF7B0FB801BA8425CD8216843
:104040000868C8690006F5D587B117F8010B12E0BA
:10405000C8690006F8D4C86900065CBFC8695FEA91
:104060000060F1D4C8690006F2D5EDE738F8020B1C
:1040700000276FF35F208862E06F00F021002128A5
:1040800046D1B4F852000138A4F85200B4F85200F6
:104090000028C7D106E000BF0027B4F8520021680D
:1040A0000028BCD1C86940061ED41DB3681C14D1B9
:1040B000C869400626D4C869400623D4C8694006AA
:1040C00020D4C86940064FF00000F1D50DE000BFD4
:1040D00020680168C069400614D4FDF75DFB801BB1
:1040E000A842F5D908E000BF00202021E16701B017
:1040F000BDE8F083FDF750FB03202021E16701B00C
:10410000BDE8F08300202021E16701B0BDE8F08325
:10411000012001B0BDE8F08370470000FEE7000019
:1041200040F60004C4F6000420464FF48071FDF709
:1041300025FB4FF4FA7002F0C7F9F5E770B50446B5
:10414000006815468369DA0602D40021002266E081
:104150000E461021C161816989065CD4711C50D062
:104160002EBBFDF719FB2068426894F84210836962
:104170001B040BD512F4804208D1202906D04168D7
:1041800041F480414160FDF707FB054620688169E5
:10419000890605D4FDF700FB401B1A28F6D328E05A
:1041A00081698906DDD536E08169890633D4FDF75A
:1041B000F3FA411B2068B142F6D9426894F84210E4
:1041C00083691B040CD512F4804209D1202907D041
:1041D000416841F480414160FDF7DEFA054600BFC9
:1041E000206881698906DFD4FDF7D6FA401B1A28BA
:1041F000F6D3206801228169242110E081698906B3
:1042000009D48169890606D4816989065CBF816900
:104210005FEA8161F2D52021C16101220421836915
:10422000DE0505D54FF4807241F00101C261012223
:104230005E0505D49B050AD472B9002070BD00BF8D
:1042400041F008014FF480629B05C26104D541F042
:1042500002014FF40072C2618269920744BF0022DA
:1042600082628269D20703D1826942F001028261CF
:1042700042684EF60003CFF600631A404260606C5D
:1042800008436064202084F84100002084F8420044
:1042900084F84000012070BD2DE9F041044600681B
:1042A00080690840401AB0FA80F04009824221D16A
:1042B000DDF8188015460E461F46581C27D0CFBB88
:1042C000204600214246FFF739FF002853D1FDF771
:1042D00063FA206881693140891BB1FA81F149098B
:1042E0008D423CD080693040801BB0FA80F040099C
:1042F0008542E5D00020BDE8F08100BF20688069DC
:104300003040801BB0FA80F040098542F2D120464F
:104310004FF0FF314246FFF711FF0028EED0012099
:10432000BDE8F08180693040801BB0FA80F0400920
:104330008542DFD1204639464246FFF7FFFED0B91D
:10434000FDF72AFAA0EB08012068B942EAD9816991
:104350003140891BB1FA81F149098D42E2D1606C8B
:1043600040F020006064202084F84100002084F8A0
:10437000420084F840000120BDE8F08170B5044699
:1043800000688069800635D415460E4619B928E0C4
:10439000806980062ED4204631462A46FFF7CEFE9D
:1043A00030BBFDF7F9F9411B2068B142F0D98169B2
:1043B0008906EDD4606C40F020006064202084F811
:1043C0004100002084F8420084F84000012070BDC4
:1043D000FDF7E2F9206881698906EBD580698006DE
:1043E00008D4204600212A46FFF7A8FE0028EFD077
:1043F000012070BD002070BD70B504460068806962
:10440000800714D415460E46481C17D01EBB00BFAB
:10441000204600212A46FFF791FEB8BBFDF7BCF904
:1044200020688169890725D580698007F0D500203B
:1044300070BD00BF206880698007F8D420464FF027
:10444000FF312A46FFF77AFE0028F3D0012070BD25
:1044500080698007EBD4204631462A46FFF76EFE7E
:10446000A0B9FDF799F9411B2068B142F0D98169E3
:104470008907EDD4606C40F020006064202084F84F
:104480004100002084F8420084F84000012070BD03
:10449000FEE70000FEE7000001F0E2BA10B582B0CE
:1044A00000EB800040000C46C1B2002001F04AFC45
:1044B00047F6C440C0F6000090E80E004FF0010C33
:1044C0002046CDF800C001F00DFE02B010BD000086
:1044D000EFF30980BFF36F8F154B1A681EF0100FB2
:1044E00008BF20ED108A20E9F04F10602DE9090087
:1044F0004FF0500080F31188BFF34F8FBFF36F8FE1
:1045000002F04CF94FF0000080F31188BDE809007B
:104510001968086800F00EB81EF0100F08BF00F010
:104520000EB880F30988BFF36F8F704700BF00BFDC
:104530001C07001030C8B0E8C04FFFF7EDBFB0EC6B
:10454000088AB0EC08CAFFF7ECBF0000F0B581B0F4
:1045500041F20005C4F20205EA68920714D0EA6845
:10456000036802F003029A424FF0010208D13BB106
:10457000EA684368C2F3021201329A422AD0012249
:10458000104601B0F0BD00BF0268032A10D0022A15
:1045900006D0012A07D12B689B0710D403E000BF87
:1045A0002B685B050BD40122104601B0F0BD00BFA3
:1045B0002B689B035CBF2B685FEA4333F3D5EB6842
:1045C00047686FF00F0623F0730306EB07173B43B2
:1045D0001A43EA60064628680F4620F0806028608B
:1045E000FDF7DAF8044600BF2868000108D5FDF79A
:1045F000D3F8001B0228F7D90322104601B0F0BD02
:104600002969B0683246012F4FEA00200CD0DFB98B
:1046100048F2FF03CFF6FD731940D2680023CFF6AE
:10462000FE7303EA42321BE048F2FF03CFF6FF13AA
:1046300003F1B463194012690023CFF6E07303EA73
:104640000252A2F500120BE048F2FF03CFF6FF136F
:10465000526919404FF07E4303EA026202F17E4242
:10466000084310432861286840F080602860FDF707
:1046700093F804462868000108D4FDF78DF8001B64
:104680000228F7D90322104601B0F0BDB0692969AC
:10469000002208432861104601B0F0BDF0B581B09A
:1046A00041F20005C4F20205EA68920714D0EA68F4
:1046B000036802F003029A424FF0010208D13BB1B5
:1046C000EA684368C2F3021201329A422AD00122F8
:1046D000104601B0F0BD00BF0268032A10D0022AC4
:1046E00006D0012A07D12B689B0710D403E000BF36
:1046F0002B685B050BD40122104601B0F0BD00BF52
:104700002B689B035CBF2B685FEA4333F3D5EB68F0
:1047100047686FF00F0623F0730306EB07173B4360
:104720001A43EA60064628680F4620F08050286049
:10473000FDF732F8044600BF2868800008D5FDF771
:104740002BF8001B0228F7D90322104601B0F0BD58
:104750006969B06832464FEA00206FB148F2FF0342
:10476000CFF6FF13126919404FF07E4303EA02624D
:1047700002F17E420BE000BF48F2FF03CFF6FD736B
:104780001940D2680023CFF6FE7303EA4232084391
:1047900010436861286840F080502860FCF7FCFFF7
:1047A000044600BF2868800008D4FCF7F5FF001B12
:1047B0000228F7D90322104601B0F0BD706969697B
:1047C000002208436861104601B0F0BD00000000FF
:1047D000074B1968086800F00DB880F30988BFF32B
:1047E0006F8F4FF0000080F31188704700BF00BF4B
:1047F0001C07001030C8B0E8C04FFFF7EEBF000044
:1048000082B040F21015C1F200050DF1060400BFA0
:1048100001F0A8F88DF8060001F056F829688DF827
:104820000700084621460022002302F03BF96420DD
:1048300001F04AFEECE7000080B54FF0500080F335
:104840001188BFF36F8FBFF34F8F02F0EDFC30B1D3
:104850004EF60450CEF200004FF08051016000206F
:1048600080F3118880BD00004EF68850CEF2000023
:10487000016841F4700101607047000040F2486037
:10488000C1F20000FEF748BC40F6FF32D0F800C08D
:10489000C4F20002904229DCB0F1804F38D040F2DF
:1048A0000042C4F20002904232D040F60002C4F24C
:1048B000000290422CD042F6FF32C4F20102904234
:1048C00031DD43F6FF72C4F20102904246DD44F24C
:1048D0000002C4F2010290424CD044F60002C4F23D
:1048E0000102904246D044F200423FE040F60042CE
:1048F000C4F2000290420BD043F20042C4F2010223
:10490000904205D042F60042C4F201029042D2D158
:104910004A682CF0700342EA030C42F6FF32C4F2FC
:1049200001029042CDDC40F2FF72C4F200029042DC
:1049300008DCB0F1804F1DD040F20042C4F200020A
:1049400016E000BF40F60002C4F20002904211D00F
:1049500040F60042C4F200020AE000BF42F6004204
:10496000C4F20102904205D043F20042C4F20102B7
:10497000904204D1CA682CF4407342EA030C80B51B
:104980008A680B68D1F814E0C262A0F18042A2F5F7
:1049900096324FEAB222072A836207D8012303FA2C
:1049A00002F212F0E50F1CBF0969016302682CF0E6
:1049B000800142F0040241EA0E01026001224261DC
:1049C000016080BD416A0A070CD4CA0715D18A0765
:1049D0001ED44A0727D4CA0630D48A0639D44A06D8
:1049E00042D457E00268D0F834C0536823F400433F
:1049F00043EA0C035360CA07E9D00268D0F828C024
:104A0000536823F4003343EA0C0353608A07E0D56C
:104A10000268D0F82CC0536823F4803343EA0C03B7
:104A200053604A07D7D50268D0F830C0536823F4E2
:104A3000802343EA0C035360CA06CED50268D0F83F
:104A400038C0936823F4805343EA0C0393608A06CA
:104A5000C5D50268D0F83CC0936823F4005343EAFC
:104A60000C0393604A0615D5D0F800C0036CDCF83F
:104A70000420B3F5801F22F4801242EA0302CCF82E
:104A8000042007D1DCF80420436C22F4C0021A434E
:104A9000CCF80420090658BF70470168806C4A684A
:104AA00022F400221043486070470000B0B582B085
:104AB00004460020C4F88400FCF76EFE2168054619
:104AC0000A68120737D56FF07E4C20464FF400116C
:104AD00000222B46CDF800C000F0CAF950B300BF49
:104AE000206850E8000F216820F0800041E80002B3
:104AF000DAB1206850E8000F216820F0800041E81A
:104B0000000292B1206850E8000F216820F0800078
:104B100041E800024AB1206850E8000F216820F007
:104B2000800041E80002002ADAD1032020217C2203
:104B30006AE000BF2168086840075DD56FF07E4CD1
:104B400020464FF4800100222B46CDF800C000F033
:104B50008FF9002850D000BF206850E8000F21686E
:104B600020F4907041E80002BAB3206850E8000FCA
:104B7000216820F4907041E8000272B3206850E888
:104B8000000F216820F4907041E800022AB32068E9
:104B900050E8000F216820F4907041E80002002ADC
:104BA000DAD11AE0206850E8020F216820F00100F5
:104BB00041E80202DAB1206850E8020F216820F0D3
:104BC000010041E8020292B1206850E8020F21681A
:104BD00020F0010041E802024AB1206850E8020FCB
:104BE000216820F0010041E80202002ADAD1032006
:104BF0002021802208E000BF2020E067C4F8800068
:104C00000021642200202166A150002184F8781040
:104C100002B0B0BD806AFEF74FBE0000B0B50546D9
:104C200005F108041ECC0068194341EA0403D5F8D5
:104C30001CE0046846F6F311CEF6FF7121401943DB
:104C400041EA0E010160416848F2000C21F4405134
:104C500011434160AA69C4F2000C60451CBF296A77
:104C60000A438168102321F430611143816044F6C6
:104C7000FF71C4F20001884218DC44F20041C4F222
:104C80000001884228D044F60001C4F200018842A5
:104C900032D044F60041C4F20001884242D141F2D0
:104CA0008801C4F2020109688B0933E045F2000172
:104CB000C4F20001884217D0604525D043F60001B8
:104CC000C4F2010188422DD141F28801C4F20201EF
:104CD0000B6863A222E000BF41F28801C4F2020126
:104CE00009688B0816E000BF41F28801C4F2020196
:104CF00009680B0A0EE000BF41F28801C4F202010C
:104D000009680B0906E000BF41F28801C4F2020104
:104D100009688B0A47F60052C0F6000203F003014F
:104D200052F82130604542F20040C0F2F40015D044
:104D3000BEF5004F22D1082B4FF0010100F28B800D
:104D4000DFE803F00650628958898989600000BF56
:104D5000FDF794FB002840F0578078E0082B4FF0D7
:104D6000010100F27880DFE803F0057621761B76FA
:104D700076761F00FDF782FBC0B968E0082B4FF084
:104D8000010100F26880DFE803F0053155663966FD
:104D900066665300FDF772FB00284BD157E000BF59
:104DA000FDF798FB10B952E04FF400406A6802EB3F
:104DB000420188424FF001014DD3130398424AD873
:104DC000010E000210EB520041F100010023FBF73D
:104DD00061FA4FF60052A0F54071C0F20F02914205
:104DE00033D337E0FDF760FB70B930E0FDF75CFBD3
:104DF00000BB2CE0FDF76EFB30B928E0FDF76AFB45
:104E0000C0B924E04FF4004069684A0802EB400052
:104E1000B0FBF1F04FF6EF72A0F11001914219D8FA
:104E20004FF6F0710140C0F3420008440DE000BFAE
:104E30004FF4004069684FF6EF7200EB5100B0FB91
:104E4000F1F0A0F11001914204D82968C860002156
:104E500001E000BF012100220846AA66EA66B0BD53
:104E60000100000004000000020000000800000033
:104E70002DE9F041804600681546C2690E46114092
:104E8000891BB1FA81F149098D4223D1069C2CB3CB
:104E9000611C29D1C1693140891BB1FA81F14909ED
:104EA0008D4217D1C1693140891BB1FA81F149099D
:104EB0008D420FD1C1693140891BB1FA81F1490995
:104EC0008D4207D1C1693140891BB1FA81F149098D
:104ED0008D42DFD00020BDE8F08100BFFCF75CFC14
:104EE0000320BDE8F08100BF1F4607E0C0693040E5
:104EF000801BB0FA80F040098542EBD1FCF74CFCF6
:104F0000C01BA04200F2B080D8F800000168490739
:104F1000ECD5402EEAD0802EE8D0C169090700F117
:104F2000A780C1690905E1D54FF400610162D8F895
:104F3000000050E8000FD8F8001020F4907041E80D
:104F40000002002A43D0D8F8000050E8000FD8F83B
:104F5000001020F4907041E80002C2B3D8F80000BD
:104F600050E8000FD8F8001020F4907041E80002DB
:104F70006AB3D8F8000050E8000FD8F8001020F409
:104F8000907041E80002002AD1D120E0D8F800005A
:104F900050E8020FD8F8001020F0010041E80202AA
:104FA0000AB3D8F8000050E8020FD8F8001020F03B
:104FB000010041E80202B2B1D8F8000050E8020F47
:104FC000D8F8001020F0010041E802025AB1D8F8E8
:104FD000000050E8020FD8F8001020F0010041E86E
:104FE0000202002AD2D1D8F8600001282CD1D8F8CA
:104FF000000050E8000FD8F8001020F0100041E841
:1050000000020AB3D8F8000050E8000FD8F80010EA
:1050100020F0100041E80002B2B1D8F8000050E8DA
:10502000000FD8F8001020F0100041E800025AB13B
:10503000D8F8000050E8000FD8F8001020F0100059
:1050400041E80002002AD2D120200021C8F88000C7
:10505000C8F86010C8F86810C8F88400032088F801
:105060007810BDE8F08100BF0320BDE8F08100BFEB
:1050700008210162D8F8000050E8000FD8F80010AD
:1050800020F4907041E80002002A44D0D8F80000D3
:1050900050E8000FD8F8001020F4907041E80002AA
:1050A000CAB3D8F8000050E8000FD8F8001020F478
:1050B000907041E8000272B3D8F8000050E8000F89
:1050C000D8F8001020F4907041E80002002AD1D1F5
:1050D00021E000BFD8F8000050E8020FD8F8001017
:1050E00020F0010041E802020AB3D8F8000050E8BD
:1050F000020FD8F8001020F0010041E80202B2B11E
:10510000D8F8000050E8020FD8F8001020F0010095
:1051100041E802025AB1D8F8000050E8020FD8F86E
:10512000001020F0010041E80202002AD2D1D8F894
:10513000600001282CD1D8F8000050E8000FD8F802
:10514000001020F0100041E800020AB3D8F8000077
:1051500050E8000FD8F8001020F0100041E80002DD
:10516000B2B1D8F8000050E8000FD8F8001020F0D5
:10517000100041E800025AB1D8F8000050E8000FD2
:10518000D8F8001020F0100041E80002002AD2D127
:105190002020C8F8800000200821C8F86000C8F866
:1051A0006800C8F8841088F878000120BDE8F08114
:1051B00040F29460C1F20000FEF780BBFEE7000001
:1051C0009AB0FCF709FD06A804304021FBF749F925
:1051D0004FF40070FCF7D2FD20B1EFF3108072B6EF
:1051E000FEE700BF1020069001200C9060200024F4
:1051F0000E9006A80D941094FDF7D0F920B1EFF3AE
:10520000108072B6FEE700BF0F20CDE9010401A8AF
:105210000021CDE903440594FCF7EEFF20B1EFF344
:10522000108072B6FEE700BF002641F24C000A96DD
:10523000CDE90866CDE90666C4F20200016840F6D1
:10524000000441F0040101600168C4F6000401F0AB
:105250000401019101990168002241F001010160FE
:1052600001684FF4807901F0010101910199016811
:1052700041F00201016000684FF4807100F002000B
:10528000019001982046FCF781FA4FF4881006AD92
:105290004FF004080790022720462946CDF81880D1
:1052A0000897FCF775F9082006A9C1C120462946D0
:1052B000FCF76EF9CDF818904FF001092046294609
:1052C000CDE907970996FCF763F908200021002231
:1052D000FCF718FD0820FCF703FD40F244500021C4
:1052E000C1F20000C5F20401CDE90266C0E9001672
:1052F000C0E90266C0E904680683C0F81C9080F823
:105300002060C0E90A6680F83060466380F8386043
:10531000FBF7F6FD20B1EFF3108072B6FEE700BF99
:1053200040F24450C1F2000001A90196FBF7C6FB10
:1053300020B1EFF3108072B6FEE700BF0220C0F28A
:1053400030400690062007907F2000250990042019
:10535000CDE90A0540F24450C1F2000006A90895C3
:10536000FBF714FC20B1EFF3108072B6FEE700BF2C
:1053700044F20044C4F2000440F2A85004F5805105
:10538000C1F200000123032280E82600C0E90335B2
:10539000C0E90555C0E90755FCF74EFA20B1EFF317
:1053A000108072B6FEE700BF40F2A850C1F20000C4
:1053B0000021FCF7F7F928B1EFF3108072B600BFB7
:1053C000FEE700BF40F2A850C1F200000021002516
:1053D000FCF70EFA20B1EFF3108072B6FEE700BFC3
:1053E00040F2FC50C1F200004FF0804144F61F63D0
:1053F0000495CDE902551895CDE90B55CDE9095530
:10540000032280E82600C0E903358561FDF7FCFC36
:1054100020B1EFF3108072B6FEE700BF4FF480506A
:10542000019040F2FC50C1F2000001A9FDF78CFD93
:1054300020B1EFF3108072B6FEE700BF40F2FC50DF
:10544000C1F20000FEF71CF920B1EFF3108072B634
:10545000FEE700BF40F2FC500025C1F2000017A992
:1054600017951995FDF76CFC20B1EFF3108072B61B
:10547000FEE700BF6020CDE9060540F2FC50C1F216
:10548000000006A9002208950A95FDF727FF18B12C
:10549000EFF3108072B6FEE740F2FC50C1F200005C
:1054A000FDF7F0FE40F29460C1F200004FF4E131EC
:1054B00000220C23C0E90041C0E90222C0E9042314
:1054C000C0E90622C0E90822FEF7F6FC20B1EFF39E
:1054D000108072B6FEE700BF00F0ACFAFEF7DCFF0A
:1054E000FBF79AF901F010F9FEE700002DE9F0470B
:1054F00040F2940440F21C75C1F20004C1F20005B0
:105500000E46D4F818A0D4F81C80D4F8209029684E
:105510000746081D00F060FE10B1781C0BD01FE09C
:1055200028680121C06A226801FA00F022EA00001E
:105530002060781C14D19EB154F8600F61682A680D
:10554000013091608A682B68DA602B6804335360FD
:105550002A6804328A60296820604C61BDE8F087BF
:1055600028681AEB07064660286800F1040105D395
:105570004846BDE8F04700F04FBE00BF404600F08F
:105580004BFEA06A864238BFA662BDE8F0870000E5
:1055900040F2940540F220764EF60458C1F2000520
:1055A000C1F20006CEF200084FF0805715E000BFB0
:1055B00000F06EFE686CC468201D00F00DFE2869C6
:1055C00001382861E8680138E86000F085FE206B4A
:1055D00000F09AFE204600F097FEE8680028E7D128
:1055E00030680228F9D3C8F80070BFF34F8FBFF3BB
:1055F0006F8FF2E708480068006880F308884FF072
:10560000000080F3148862B661B6BFF34F8FBFF31A
:105610006F8F00DF00BF000008ED00E081B00020C8
:10562000009040F20C00C1F2000000684FF0500101
:1056300081F31188BFF36F8FBFF34F8F013007D015
:10564000FEE700BF009830B9009820B9009810B963
:1056500000980028F6D001B070470000F0B581B086
:10566000044600F015FE94F94560012E0FDB04F1AD
:10567000240500BF286850B1284601F0FFFE00282D
:1056800018BF01F01DF8F0B2013E0128F2D8FF2644
:1056900084F8456000F020FE00F0FAFD94F94470B3
:1056A000012F0EDB04F11005286850B1284601F0E7
:1056B000E5FE002818BF01F003F8F8B2013F012809
:1056C000F2D884F8446001B0BDE8F04000F004BEB8
:1056D0002DE9F04100F10805092D01D200250AE06D
:1056E00010F0070107D009398D429ABF20F007005A
:1056F00000F11005002501F049F840F2700CC1F2EC
:10570000000CDCF800303BB1DCF80410012D4FF048
:10571000000423DA4DE000BF40F20000C2F20000B6
:10572000420700F5963200F1070122F0070218BF88
:1057300021F007000021A2F10803CCE90501CCF813
:10574000003042E90211191ADCF80030C0E90031DA
:10575000CCE90111012D4FF000042ADB8D4228D83D
:10576000DCF8142040F2000EC2F2000E72452FD376
:1057700042F6FF30C0F201000EEB0006B24227D81D
:1057800057680CF11400AF422CD2146864B100BF0A
:1057900074455BD310462246B44257D85768AF428F
:1057A00020D21468002CF3D14FF001089A421DD189
:1057B000002401F0D5FE600700F071804FF050002A
:1057C00080F31188BFF36F8FBFF34F8FFEE700BFE9
:1057D0004FF0500080F31188BFF36F8FBFF34F8FEE
:1057E000FEE700BF4FF000089A42E1D0036803F1E2
:1057F0000804744510D3B4420ED81368B8F1000FF2
:10580000036013D04FF0500080F31188BFF36F8F07
:10581000BFF34F8FFEE700BF4FF0500080F31188B9
:10582000BFF36F8FBFF34F8FFEE700BF7F1B102FBB
:1058300016D95619710715D04FF0500080F3118812
:10584000BFF36F8FBFF34F8FFEE700BF4FF05000E5
:1058500080F31188BFF36F8FBFF34F8FFEE700BF58
:10586000556804E0C6E90037DCF804100660DCF88F
:105870000830481B9842CCF8040038BFCCF8080028
:1058800045F000400021C2E90010DCF80C000130B6
:10589000CCF80C0001F064FE60077FF48FAF204667
:1058A000BDE8F081034645F21D6021F00101C0F61C
:1058B00000004FF0807C03E903106FF00201A3F1B8
:1058C000440043E90912704780B540F60000C4F671
:1058D00000000821FBF74CFFB0FA80F0400980BDC2
:1058E00010B586B00420C0F66000009006207F212D
:1058F00001900020039104210290CDE9041040F2B0
:105900004450C1F200006946FBF740F9002818BF77
:10591000FBF7CEF840F24454C1F200042046FBF7F6
:10592000EDFC20460A21FBF737FC08B1002406E015
:1059300040F24450C1F20000FBF7DEFA84B240F2BC
:105940004450C1F20000FBF74BFD40F63C705A2179
:10595000844288BF6FF04B01642C38BF0021C8B26D
:1059600006B010BDB0B586B00220C0F23040009045
:1059700006207F2101900020039104210290CDE9AF
:10598000041040F24450C1F200006946FBF7FEF8F3
:10599000002818BFFBF78CF840F24454C1F2000411
:1059A0002046FBF7ABFC20460A21FBF7F5FB002461
:1059B0004FF0000530B940F24450C1F20000FBF74F
:1059C0009BFA85B240F24450C1F20000FBF708FD9B
:1059D00040F28871C1F2000140F6FC00854288BFA8
:1059E000012420460D8006B0B0BD0000B42828BFB9
:1059F000B42000EE100A9FED0C1AB8EE400A9FED9D
:105A00000B2A20EE010A80EE020A9FED091A40F2ED
:105A1000FC50C1F20000006830EE010ABCEEC00A82
:105A200080ED0D0A704700BF0000FA4400003443C7
:105A30000000FA4340F2FC50C1F200000021FDF7E3
:105A400055BE000080B50246002840F24410C1F265
:105A500000004FF4806118BFFF22FAF7D8FC80BD28
:105A60002DE9F04784B040F2A85440F20818AE2067
:105A7000C1F20004C1F200084FF000098DF80F00D8
:105A8000642701250DF10F0620467821002201230D
:105A900088F80090CDE900650297FBF725FF4FF0ED
:105AA000200A20467821002201238DF80FA0CDE99D
:105AB00000650297FBF718FF20467821002201239A
:105AC0008DF80F90CDE900650297FBF70DFFB02030
:105AD0008DF80F002046782100220123CDE90065D2
